:100000000C942A000C949F080C9447000C94470011
:100010000C9447000C9447000C9447000C94470044
:100020000C9447000C9447000C9447000C94BE00BD
:100030000C9447000C9447000C9447000C94470024
:100040000C9447000C9447000C9447000C94470014
:100050000C94470011241FBECFE5D4E0DEBFCDBF16
:1000600012E0A0E6B0E0ECE2F0E302C005900D92F1
:10007000A03DB107D9F713E0A0EDB2E001C01D9299
:10008000A532B107E1F70E9493160C9414180C9452
:10009000000010BCE4E0220F331F441F551FEA95F7
:1000A000D1F70E944B17215029B986E880BD88E915
:1000B0008AB9789408955D9BFECF8CB9089503C0EA
:1000C0005D9BFECF2CB9FC01019624912223C1F740
:1000D00008958091D902882331F49091D7028091BC
:1000E000D8029817D1F31092D9028091D7028F5F6E
:1000F0008093D7028091D702803210F01092D702FD
:10010000E091D702F0E0E550FD4F808108951F9304
:10011000CF93DF93EC0110E00E946900FE01E10F34
:10012000F11D80831F5F8132B9F7C10FD11D219767
:100130001882DF91CF911F9108958091D902882371
:1001400011F090E219C09091D8028091D7028917DE
:1001500028F49091D8028091D7020DC09091D802D6
:100160008091D702981710F090E006C09091D802C5
:100170008091D702905E981B892F08951F920F924D
:100180000FB60F9211248F939F93EF93FF9380915B
:10019000D8028F5F8093D8028091D802803210F00D
:1001A0001092D8029091D7028091D802981729F422
:1001B0008091D9028F5F8093D902E091D8028CB1EF
:1001C000F0E0E550FD4F8083FF91EF919F918F917B
:1001D0000F900FBE0F901F90189592E093BF8CBFA9
:1001E00092B78CB79817E0F313BE12BE0895282F6C
:1001F00085E083BF88E08CBF06C012BE92B78CB783
:100200009817E0F321502223C1F713BE12BE0895C0
:10021000D09A82E083BF8AEF8CBF92B78CB79817D1
:10022000E0F313BE12BE82E083BF8AEF8CBF92B7A9
:100230008CB79817E0F313BE12BED09882E083BF4C
:1002400087E38CBF92B78CB79817E0F313BE12BE4A
:1002500029B382E083BF88EC8CBF92B78CB7981724
:10026000E0F313BE12BE82E083BF88EC8CBF92B76E
:100270008CB79817E0F313BE12BEC89902C081E094
:100280000895822F81700895D09A80E090E001C097
:10029000019685309105E4F39093E2028093E102A8
:1002A0000000D09882E083BF8FE08CBF92B78CB7FC
:1002B0009817E0F313BE12BE89B381700895D09AE7
:1002C00020E030E002C02F5F3F4F2A303105DCF3E1
:1002D0003093E2022093E1020000813009F4D098CB
:1002E00082E083BF84E68CBF92B78CB79817E0F3A7
:1002F00013BE12BED0980895DF92EF92FF920F9333
:100300001F93CF93DF9310E0C0E0D0E0A1E0EA2E8E
:10031000F12CF2E0DF2E06E40E944401882341F034
:10032000C7010C2E02C0880F991F0A94E2F7182B00
:10033000D3BE0CBF92B78CB79817E0F313BE12BEB2
:100340002196C830D10541F7812FDF91CF911F91C0
:100350000F91FF90EF90DF9008950F931F93CF932D
:10036000DF93C0E0D0E0082F10E0C8010C2E02C0DF
:10037000959587950A94E2F781700E945F01219616
:10038000C830D10591F782E083BF82E38CBF92B77A
:100390008CB79817E0F313BE12BEDF91CF911F9177
:1003A0000F9108950F931F930E9408010E94080166
:1003B0008CEC0E94AD0184E40E94AD010E94080112
:1003C0008CEC0E94AD018EEB0E94AD010E947C017D
:1003D000082F0E947C0102950F7010E090E0B4E0BD
:1003E000880F991FBA95E1F7082B192B0093DA02B1
:1003F0001F910F91089508C000002150E9F7315076
:1004000011F024E6F9CF0197009711F03AE0F9CF07
:100410000895C39A98B3282F207F9F70292B28BB5B
:10042000C398C39A98B38295807F9F70982B98BB8E
:10043000C39881E090E00E94FB010895C29A0E9457
:1004400009020895C2980E9409020895623061F07D
:10045000633018F4613069F405C0633039F06430FA
:1004600041F406C0815805C0815403C08D5601C0B7
:100470008D520E94220208950F931F93CF93DF9312
:100480008C01C0E0D0E00EC00E941E022196C03157
:10049000D10531F481E090E062E070E00E94260234
:1004A0000F5F1F4FF8018081882371F7DF91CF9193
:1004B0001F910F91089581E00E94220285E090E053
:1004C0000E94FB0181E061E00E94260208951F93D3
:1004D0008FEF87BB88BB8FE090E00E94FB01C39841
:1004E000C29810E0C39A88B38F7388BBC39885E025
:1004F00090E00E94FB011F5F1330A1F7C39A88B3FD
:100500008E7288BBC39881E090E00E94FB0188E274
:1005100090E00E94220284E190E00E94FB0188E0CA
:1005200090E00E94220284E190E00E94FB0181E0C1
:1005300090E00E94220284E190E00E94FB0186E0AC
:1005400090E00E94220284E190E00E94FB018CE096
:1005500090E00E9422021F9108950F931F93CF9362
:10056000DF938C01C0E0D0E0C8010E94FB0121961E
:10057000C430D105C9F7DF91CF911F910F91089534
:100580000F931F93CF93DF93082FEB0111E0812F7F
:10059000602F0E9426028FEF0E941E02CF3FD105DE
:1005A00029F020F0CE010E94AD0203C0CE010E94CE
:1005B000FB011F5F113159F7DF91CF911F910F910F
:1005C0000895982F9F70892F805D8A3308F0895F86
:1005D00008959C01FB01932F92959F70892F805D58
:1005E0008A3308F0895F8083932F9F70892F805D05
:1005F0008A3308F0895F8183C90134E09695879535
:100600003A95E1F78F70982F905D9A3308F0995FD3
:100610009283822F8F70282F205D2A3308F0295F64
:100620002383148208950F931F93DF93CF9300D0F9
:1006300000D00F92CDB7DEB78E010F5F1F4FB8010C
:100640000E94E902C8010E943C020F900F900F9097
:100650000F900F90CF91DF911F910F910895982FD8
:1006600082958F70880F282F220F220F820F9F7084
:10067000890F0895282F6AE00E942C17382F329591
:10068000307F822F0E942C17832F890F0895282FE7
:10069000FB016AE00E942C17805D8083822F0E94FC
:1006A0002C17905D918312820895FB01282F2295CB
:1006B0002F70922F905D9A3308F0995F90838F701E
:1006C000982F905D9A3308F0995F91831282089574
:1006D0000F931F93DF93CF9300D00F92CDB7DEB768
:1006E00090E08E010F5F1F4FB8010E945503C801B3
:1006F0000E943C020F900F900F90CF91DF911F91BD
:100700000F910895FC018081882311F080E0089505
:1007100081810895FF920F931F93F82EA198A99AB3
:1007200081E090E00E94FB0110E000E0A89A81E0E7
:1007300090E00E94FB01000F99990160A89881E068
:1007400090E00E94FB011F5F183081F7A19AFF2003
:1007500011F4A99801C0A99A81E090E00E94FB01E0
:10076000A89A81E090E00E94FB01A89881E090E0C7
:100770000E94FB01A99881E090E00E94FB01802F7C
:100780001F910F91FF900895A89AA99AA19AA09AF3
:1007900081E090E00E94FB01A99881E090E00E9436
:1007A000FB01A89881E090E00E94FB010895A19AC6
:1007B000A89A81E090E00E94FB01A99A81E090E074
:1007C0000E94FB0108950F931F93082FA19A10E038
:1007D00007FF02C0A99A01C0A99881E090E00E9499
:1007E000FB01A89A81E090E00E94FB01A8981F5F9E
:1007F000183011F0000FECCFA198A99A81E090E099
:100800000E94FB01A89A81E090E00E94FB011FEF8B
:10081000999B06C081E090E00E94FB011150C1F756
:10082000A89881E090E00E94FB01812F1F910F9119
:1008300008951F93182F0E94C40382EA0E94E303C5
:10084000812F0E94E3030E94C40383EA0E94E30312
:1008500081E00E948A03182F0E94D703812F1F91E5
:1008600008950E941904982F82958F70880F282F61
:10087000220F220F820F9F70890F089580E00E943F
:1008800019048093FA028091FA0282708093240303
:100890008091FA020895EF92FF920F931F938C01BB
:1008A0007B018DE00E941904982F96959695969558
:1008B0009670292F220F220F920F8F70980FF80138
:1008C00090838EE00E941904982F969596959695A0
:1008D0009270292F220F220F920F8F70980FF7011D
:1008E00090831F910F91FF90EF900895AF92BF9268
:1008F000CF92DF92EF92FF920F931F935C016B01F7
:100900007A01890189E00E943104F80180838AE03C
:100910000E943104F70180838BE00E943104F601CC
:1009200080838CE00E943104F50180831F910F9138
:10093000FF90EF90DF90CF90BF90AF9008950F930E
:100940001F93182F062F0E94C40382EA0E94E3031C
:10095000812F0E94E303802F0E94E3030E94D703AC
:100960001F910F9108950E943E048091FA028068C1
:100970008093FA026091FA0280E090E070E00E94B9
:100980009F0408950E943E048091FA028F7780931D
:10099000FA026091FA0280E090E070E00E949F0409
:1009A00008951092FA021092240380E090E060E033
:1009B00070E00E949F0484E00E941904682F70E098
:1009C0006F73707084E090E00E949F0488E090E074
:1009D00060E970E00E949F0408950E943E048091A7
:1009E000FA0280648093FA026091FA0280E090E05B
:1009F00070E00E949F0408950E943E048091FA02D4
:100A00008F7B8093FA026091FA0280E090E070E0C0
:100A10000E949F040895AF92BF92CF92DF92EF920F
:100A2000FF920F931F935C016B017A0189010E9471
:100A3000ED0481E00E943104F801808382E00E948D
:100A40003104F701808383E00E943104F601808342
:100A500084E00E943104F50180830E94FC041F9110
:100A60000F91FF90EF90DF90CF90BF90AF900895DF
:100A70000E943E048091FA028B7F8093FA0260917B
:100A8000FA0280E090E070E00E949F0408950E94C6
:100A90003E048091FA0284608093FA026091FA0227
:100AA00080E090E070E00E949F04959880EF81BB09
:100AB000929A8AE085BF80EC8BBF78940895482F86
:100AC000362F862F6AE00E942C17282F2295207F30
:100AD000832F0E942C17290F842F622F0E949F04BE
:100AE0000895EF92FF920F931F93E82EF62E042F96
:100AF000122F0E94B30481E090E0612F70E00E9409
:100B00005F0582E090E0602F70E00E945F0583E067
:100B100090E06F2D70E00E945F0584E090E06E2D04
:100B200070E00E945F050E94C2041F910F91FF9028
:100B3000EF900895FF920F931F93F82E062F142F16
:100B400089E090E0622F70E00E945F058AE090E00B
:100B5000612F70E00E945F058BE090E0602F70E0F5
:100B60000E945F058CE090E06F2D70E00E945F05B1
:100B70000E9447051F910F91FF900895582F362F1F
:100B80004295440F440F407C862F6AE00E942C1748
:100B9000282F2295207F832F0E942C17290F422B6C
:100BA000852F642F0E949F0408951F93282F162FCE
:100BB0008DE090E0622F70E040E050E00E94BE05C2
:100BC0008EE090E0612F70E00E945F051F91089514
:100BD0000F931F93182F072F0E949F04812F8F5F61
:100BE000602F0E949F041F910F910895EF92FF9232
:100BF0000F931F93182F062F7A0180E190E0BA011E
:100C00000E94E8050E94B30485E090E0612F70E047
:100C1000A7010E94BE0586E090E0602F70E00E9470
:100C20005F050E94C2041F910F91FF90EF900895FD
:100C3000CF92DF92EF92FF920F931F93CF93DF93A8
:100C40006C017B01EA010E94ED0485E00E94190419
:100C5000082F86E00E941904982F969596959695F0
:100C60009270292F220F220F920F8F70980FF70189
:100C700090830E94FC04202F2F7006950695069500
:100C8000802F8670982F990F990F890F820FF60188
:100C9000808380E10E941904F82E81E10E941904EA
:100CA000382F20E0EF2CFF24E22AF32A8E2D90E04B
:100CB0008370907006950695069510E08017910751
:100CC00041F00894E11CF11C80E190E0B7010E9422
:100CD000E805F982E882DF91CF911F910F91FF9093
:100CE000EF90DF90CF90089582E305C0C99903C0CB
:100CF00021E030E004C08150C8F720E030E0C901B5
:100D00000895F82F40E050E084E083BF81E082BF87
:100D1000C99BFECFF230F0F581E082BF04C082B7FC
:100D20008C3808F095C0C999FACF81E082BFC99B81
:100D3000FECFE2B7EE0FAE2FAA0F70E060E0B1E099
:100D40001CC0B2BF82B7A81708F482C0C999FACFF5
:100D5000660F8E1708F06F5FFF2329F4773249F092
:100D60007F3241F402C07F3011F4562F03C07F312F
:100D700009F4462FC99BFECF7F5FFF2319F020E2C5
:100D800030E002C020E330E0872F90E08217930725
:100D9000C4F25CC0F43090F582B78D3308F458C0CB
:100DA00060E020E030E071E0A1E0B0E01AC082B77E
:100DB0008C3808F04DC0C999FACF72BF04C082B711
:100DC0008C3808F045C0C99BFACF82B7893140F012
:100DD000CD0102C0880F991F4A95E2F7280F391FED
:100DE0006F5F462F50E0F33019F08EE090E002C0C4
:100DF0008BE090E048175907F4F22CC060E030E037
:100E000020E071E089B390E096958795982F9170D6
:100E100072BF82B78232E0F4C99905C0913019F4EB
:100E2000220F2F5F05C0C99BF4CF992391F7220FA2
:100E3000363019F4622F6F7520E072BF82B78232AC
:100E4000E8F33F5F3D30F1F6562F422F9A0102C082
:100E500020E030E0C9010895C99BFECF84E083BF44
:100E600081E082BF03C082B78C3838F5C999FBCFC7
:100E700081E082BFC99BFECF32B7330F532F550F8E
:100E800020E080E071E072BF92B75917B0F0C999C5
:100E9000FBCF880F931708F08F5F2F3011F4682F66
:100EA00003C02F3109F4482FC99BFECF2F5F20329A
:100EB00051F7842F962F9C0102C020E030E0C90139
:100EC000089581E061E00E94260280E690E00E94A1
:100ED0003C029091D5028091CF02981741F081E0B9
:100EE00062E00E94260281E790E00E943C020895A1
:100EF00089EF92E067EF72E04DE153E020EE32E0DF
:100F00000E940B0508958091DC028F5F8093DC02C4
:100F10006AE00E942C17992311F40E94D2010895CF
:100F20000E945B0282E890E00E943C0281E062E065
:100F30000E9426028CE30E941E0283E990E00E9438
:100F40003C0280E162E00E9426028EE30E941E02C3
:100F500008950E945B0282EA90E00E943C0281E0D8
:100F600062E00E9426028CE30E941E0284E062E09E
:100F70000E94260283EB90E00E943C0280E162E046
:100F80000E9426028EE30E941E0208950E945B02C8
:100F90008EEB90E00E943C0281E062E00E9426021B
:100FA0008CE30E941E0285E062E00E9426028FEC24
:100FB00090E00E943C0208950E945B0286ED90E062
:100FC0000E943C0280E162E00E9426028EE30E94C1
:100FD0001E02089585E062E00E94260287EE90E0FE
:100FE0000E943C028EEF0E941E02959881E0809341
:100FF000D602089585E062E00E94260280EF90E02C
:101000000E943C02959A1092D60208950E945B02BB
:101010008AEF90E00E943C0281E062E00E9426029A
:101020008CE30E941E0280E162E00E9426028EE3B1
:101030000E941E02859903C00E94EA0708950E943B
:10104000FA07089586E062E00E9426028BE091E0B4
:101050000E943C028EEF0E941E029698089586E040
:1010600062E00E94260282E191E00E943C02969A90
:1010700008950E945B028AE191E00E943C0281E0B7
:1010800062E00E9426028CE30E941E02869903C041
:101090000E94220808950E942F0808950E945B0272
:1010A0008BE291E00E943C0282E06AEF70E00E94D5
:1010B000C0020E945B0289E391E00E943C02089515
:1010C0000E945B0286E491E00E943C0282E06AEFAB
:1010D00070E00E94C002949A0E945B0287E591E052
:1010E0000E943C0288EE93E00E94AD020E945B02E7
:1010F00080E690E00E943C02089581E061E00E9459
:10110000260287E691E00E943C0208951F930E9408
:101110005B028FE00E94220207C00E946900182F24
:10112000813241F00E941E020E949D008823A9F78F
:101130001132D1F78CE00E9422021F9108951F9274
:101140000F920FB60F9211242F933F934F935F93FB
:101150006F937F938F939F93AF93BF93EF93FF937F
:10116000C09A8AEF90E00E94FB01C0988AEF90E05D
:101170000E94FB01CF99F4CFFF91EF91BF91AF9106
:101180009F918F917F916F915F914F913F912F919F
:101190000F900FBE0F901F9018958AE085BF80ECCE
:1011A0008BBF78940895CF92DF92EF92FF920F93C6
:1011B0001F93DF93CF93CDB7DEB76A970FB6F8943E
:1011C000DEBF0FBECDBF07EE12E0C8010E94870050
:1011D0006CE0E62EF12CEC0EFD1EC701B8010E945A
:1011E000AA176E010894C11CD11CC601B70143E0C7
:1011F00050E00E94B11754E0E52EF12CEC0EFD1EDC
:10120000C701BE01615F7F4F43E050E00E94B1170C
:101210008E01095F1F4FC801BE016E5E7F4F45E022
:1012200050E00E94B117C6010E948117D82EC70155
:101230000E948117F82EC8010E948117AC018D2DE4
:101240006F2D0E94F6058091D5029091CE02892BD8
:101250008093D5026A960FB6F894DEBF0FBECDBF5D
:10126000CF91DF911F910F91FF90EF90DF90CF9082
:101270000895CF92DF92EF92FF920F931F93DF9327
:10128000CF93CDB7DEB760970FB6F894DEBF0FBE31
:10129000CDBF07EE12E0C8010E94870077E0E72E7D
:1012A000F12CEC0EFD1EC701B8010E94AA176E01B9
:1012B0000894C11CD11CC601B70143E050E00E9454
:1012C000B1178E010C5F1F4FC801BE01665F7F4FD3
:1012D00043E050E00E94B117C6010E94811780933D
:1012E000D002C8010E9481178093D10260960FB688
:1012F000F894DEBF0FBECDBFCF91DF911F910F914C
:10130000FF90EF90DF90CF900895CF92DF92EF9211
:10131000FF920F931F93DF93CF93CDB7DEB7639701
:101320000FB6F894DEBF0FBECDBF07EE12E0C801C6
:101330000E948700FAE0EF2EF12CEC0EFD1EC70193
:10134000B8010E94AA176E010894C11CD11CC601E5
:10135000B70143E050E00E94B117E4E0EE2EF12C1B
:10136000EC0EFD1EC701BE01635F7F4F43E050E0FE
:101370000E94B1178E01095F1F4FC801BE01605F57
:101380007F4F43E050E00E94B117C6010E948117D1
:101390008093D202C7010E9481178093D302C801B3
:1013A0000E9481178093D4028091D5029091CC0243
:1013B000892B8093D50263960FB6F894DEBF0FBEDB
:1013C000CDBFCF91DF911F910F91FF90EF90DF90F4
:1013D000CF900895CF92DF92EF92FF920F931F93D9
:1013E000DF93CF93CDB7DEB763970FB6F894DEBF28
:1013F0000FBECDBF07EE12E0C8010E948700BAE021
:10140000EB2EF12CEC0EFD1EC701B8010E94AA17AD
:101410006E010894C11CD11CC601B70143E050E025
:101420000E94B117A4E0EA2EF12CEC0EFD1EC701BC
:10143000BE01635F7F4F43E050E00E94B1178E0111
:10144000095F1F4FC801BE01605F7F4F43E050E05E
:101450000E94B117C6010E948117D82EC7010E94B1
:101460008117F82EC8010E948117482F8D2D6F2DEE
:1014700020E00E9471058091D5029091CD02892BC8
:101480008093D50263960FB6F894DEBF0FBECDBF32
:10149000CF91DF911F910F91FF90EF90DF90CF9050
:1014A00008950E949D00882309F4DCC087EE92E035
:1014B0000E94870087EE92E068E771E047E050E025
:1014C0000E94C517009711F481E0089587EE92E01D
:1014D00060E871E04AE050E00E94C517009711F4FF
:1014E00082E0089587EE92E06BE871E048E050E01A
:1014F0000E94C517009711F48FE0089587EE92E0DF
:1015000064E971E048E050E00E94C517009711F4CB
:1015100080E1089587EE92E06DE971E047E050E0E8
:101520000E94C517009711F481E1089587EE92E0BB
:1015300065EA71E047E050E00E94C517009711F49A
:1015400082E1089587EE92E06DEA71E045E050E0B7
:101550000E94C517009711F484E0089587EE92E089
:1015600063EB71E044E050E00E94C517009711F46E
:1015700085E0089587EE92E068EB71E044E050E08A
:101580000E94C517009711F486E0089587EE92E057
:101590006DEB71E044E050E00E94C517009711F434
:1015A00083E1089587EE92E064EC71E044E050E05E
:1015B0000E94C517009711F484E1089587EE92E028
:1015C0006CEC71E044E050E00E94C517009711F404
:1015D00087E0089587EE92E061ED71E044E050E02D
:1015E0000E94C517009711F488E0089587EE92E0F5
:1015F00066ED71E047E050E00E94C517009711F4D6
:1016000089E0089587EE92E06EED71E047E050E0EA
:101610000E94C517009711F48AE0089587EE92E0C2
:1016200066EE71E042E050E00E94C517009711F4A9
:101630008BE0089587EE92E069EE71E043E050E0C0
:101640000E94C517009711F48CE0089587EE92E090
:101650006DEE71E048E050E00E94C517009711F46C
:101660008EE0089580E008950F931F93DF93CF934A
:10167000CDB7DEB762970FB6F894DEBF0FBECDBF11
:10168000462F8E010F5F1F4FB80150E00E94D31705
:10169000C8010E943C0262960FB6F894DEBF0FBEEE
:1016A000CDBFCF91DF911F910F9108950E945B02F2
:1016B00085EF91E00E943C0281E062E00E942602F8
:1016C00086E092E00E943C028091D202882369F079
:1016D0008A3030F488E092E00E943C028091D2028D
:1016E00090E06AE00E94340B04C08AE092E00E941D
:1016F0003C028DE092E00E943C028091D30288235C
:1017000069F08A3030F488E092E00E943C028091D7
:10171000D30290E06AE00E94340B04C08AE092E0B9
:101720000E943C0281E192E00E943C028091D4023E
:10173000882329F090E06AE00E94340B04C088E01E
:1017400092E00E943C0286E192E00E943C020895F1
:1017500083E293E066EE72E040E253E00E941806F6
:1017600081E062E00E9426028CE30E941E0284E077
:1017700062E00E942602809123038A3020F488E0F0
:1017800092E00E943C028091230390E06AE00E9474
:10179000340B8FE20E941E028091E6028A3020F410
:1017A00088E092E00E943C028091E60290E06AE0CC
:1017B0000E94340B8FE20E941E02809120039091C0
:1017C00021036AE00E94340B80E162E00E9426025D
:1017D0008EE30E941E0208958EE193E06FE173E0B4
:1017E00042E253E023EE32E00E940B0585E062E026
:1017F0000E94260280911E038A3020F488E092E045
:101800000E943C0280911E0390E06AE00E94340B2B
:1018100080911F038A3028F48AE192E00E943C0202
:1018200003C08AE30E941E0280911F0390E06AE0D9
:101830000E94340B809122038A3028F48AE192E0DE
:101840000E943C0203C08AE30E941E028091220390
:1018500090E06AE00E94340B80E162E00E94260280
:101860008EE30E941E020895CF93DF9304C05D9B18
:10187000FECF8CB9CE01EC0121960E94FC17882383
:10188000B1F7DF91CF910895DC010D900020E9F7C9
:101890001197A81BB90B20E030E009C0FC01E20F52
:1018A000F31FE0815D9BFECFECB92F5F3F4F2A17FE
:1018B0003B07A4F308950E94440C0895EF92FF9211
:1018C0000F931F93F090D0020F2D10E08091D10262
:1018D0009801280F311DC90168E170E00E94381796
:1018E000E82E81E062E00E9426028091F90290E0F9
:1018F0006AE00E94340B8DE192E00E943C028091EC
:10190000F70290E06AE00E94340B8FE192E00E94BF
:101910003C02C8016AE00E94340B8FE192E00E9411
:101920003C028E2D90E06AE00E94340B8FE192E041
:101930000E943C028091F9028F1598F1E81688F117
:1019400081E292E00E943C028091D4022091DA026E
:1019500030E0280F311D8091D30290E0281739071D
:1019600054F48091D602882331F0949883E292E077
:101970000E94440C01C0949A8091DA0290E0409158
:10198000D4022091D30230E0240F311D28173907EB
:10199000DCF58091D6028823B9F1979882E392E032
:1019A00030C082E492E00E943C028091D4022091F7
:1019B000DA0230E0280F311D8091D20290E0281722
:1019C000390754F48091D602882331F0949884E446
:1019D00092E00E94440C01C0949A8091DA0290E057
:1019E0004091D4022091D20230E0240F311D2817FB
:1019F000390754F48091D602882331F0979884E413
:101A000092E00E94440C01C0979A8FE192E00E94FC
:101A10003C028091DA0290E06AE00E94340B1F9150
:101A20000F91FF90EF900895FF920F931F93DF9314
:101A3000CF9300D000D000D0CDB7DEB71E820E9479
:101A400008018CEC0E94AD0184E40E94AD0188EC99
:101A50000E94F70088EC0E94F70088EC0E94F700D3
:101A600088EC0E94F70088EC0E94F7000E940801B1
:101A70008CEC0E94AD018EEB0E94AD010E947C01B6
:101A8000082F0E947C01E02FE295EF70F0E090E0DB
:101A900074E0880F991F7A95E1F7E82BF92B10E095
:101AA0000F701070CF0164E670E00E943817462F67
:101AB000405D4983CF016AE070E00E943817F62E3E
:101AC00080E3F80ECF016CE97FEF0E943817CB015D
:101AD0009B0163E0220F331F6A95E1F7880F991F7E
:101AE000280F391FF20EFA82CF016AE070E00E94DF
:101AF0003817805D8B838EE28C83C80133E0880FBA
:101B0000991F3A95E1F7000F111F800F911F14E004
:101B1000959587951A95E1F7805D8D83403339F56A
:101B200020E030E080E3F81611F421E030E010927C
:101B3000E2021092E1022F5F3F4FCE010196DC01DD
:101B4000A20FB31F21503040FC0140E050E066E09E
:101B500070E0621B730B04C08D9181934F5F5F4FE8
:101B600046175707CCF35093E2024093E10286E018
:101B700062E00E9426028E010F5F1F4FC8010E9483
:101B80003C0280EB0E941E0283E40E941E02C801F8
:101B90000E94440C26960FB6F894DEBF0FBECDBF50
:101BA000CF91DF911F910F91FF9008950E945B02EA
:101BB00081E592E00E943C020E94140D08950F936B
:101BC0001F93DF93CF9300D00F92CDB7DEB790E095
:101BD0008E010F5F1F4FB8010E944703C8010E948A
:101BE000440C0F900F900F90CF91DF911F910F91A8
:101BF00008950F931F93DF93CF93CDB7DEB761970F
:101C00000FB6F894DEBF0FBECDBF462F8E010F5F1B
:101C10001F4FB80150E00E94D317C8010E94440C26
:101C200061960FB6F894DEBF0FBECDBFCF91DF91A6
:101C30001F910F91089583E293E066EE72E040E217
:101C400053E00E94180684E062E00E942602809120
:101C500023038A3078F480E30E941E0280912303DC
:101C600090E06AE00E94340B80E090E06AE00E941D
:101C7000F90D04C090E06AE00E94340B80912303C8
:101C800090E06AE00E94F90D8FE20E941E025D9BC7
:101C9000FECF8FE28CB98091E6028A3078F480E33F
:101CA0000E941E028091E60290E06AE00E94340BDE
:101CB00080E090E06AE00E94F90D04C090E06AE0E4
:101CC0000E94340B8091E60290E06AE00E94F90DD8
:101CD0008FE20E941E025D9BFECF8FE28CB9809145
:101CE0002003909121036AE00E94340B809120032D
:101CF000909121036AE00E94F90D08958EE193E02E
:101D00006FE173E042E253E023EE32E00E940B0504
:101D100085E062E00E94260280911E038A3078F4FA
:101D200080E30E941E0280911E0390E06AE00E9400
:101D3000340B80E090E06AE00E94F90D04C090E06E
:101D40006AE00E94340B80911E0390E06AE00E94DA
:101D5000F90D8AE30E941E025D9BFECF8AE38CB9D7
:101D600080911F038A3078F480E30E941E028091E4
:101D70001F0390E06AE00E94340B80E090E06AE08C
:101D80000E94F90D04C090E06AE00E94340B80913B
:101D90001F0390E06AE00E94F90D8AE30E941E0290
:101DA0005D9BFECF8AE38CB9809122038A3078F460
:101DB00080E30E941E028091220390E06AE00E946C
:101DC000340B80E090E06AE00E94F90D04C090E0DE
:101DD0006AE00E94340B8091220390E06AE00E9446
:101DE000F90D08950E945B0282E692E00E943C0297
:101DF0000E947E0E0E941B0E0895803139F18131C0
:101E000080F4893009F468C08A3020F4863009F003
:101E10007DC017C08A3009F462C08F3009F076C0E7
:101E20000DC0823109F455C0823108F45BC08331A2
:101E300009F45BC0843109F069C060C00E94F20EF1
:101E400002C00E94D60D0E945B0208950E945B02B0
:101E500083E792E00E943C028091D00290E06AE029
:101E60000E94F90D84E892E00E94440C8091D10216
:101E700090E06AE00E94F90D84E892E00E94440C30
:101E80008091D20290E06AE00E94F90D84E892E02D
:101E90000E94440C8091D30290E06AE00E94F90D08
:101EA00084E892E00E94440C8091D40290E06AE0C1
:101EB0000E94F90D84E892E00E94440C8091D602C1
:101EC00090E06AE00E94F90D84E892E00E94440CE0
:101ED00008950E94390908950E94EA0908950E9410
:101EE000D30808950E94850908950E94EA070E9478
:101EF0005B0287E691E00E943C0208950E94FA0787
:101F00000E945B0287E691E00E943C0208950F93D5
:101F10001F93CF93DF93C0E0D0E00E942C078C0189
:101F20000097D1F0939886E990E00E94FB01939A84
:101F300086E990E00E94FB01939886E990E00E9478
:101F4000FB01939AC8016AE00E94F90D86E892E0CD
:101F50000E94440CC80104C02196C035D105E9F6A1
:101F6000DF91CF911F910F910895AF92BF92CF92C1
:101F7000DF92EF92FF921F93DF93CF93CDB7DEB73F
:101F800028970FB6F894DEBF0FBECDBF8FE00E943A
:101F9000220284E190E00E94FB0110E07E0108949F
:101FA000E11CF11CF6E0AF2EB12CAC0EBD1EE3E03F
:101FB000CE2ED12CCC0EDD1E01C01BE0812F8E5FFA
:101FC00062E00E9426020E94870F2FE38F3692075D
:101FD00009F462C02FE380379207E8F42FE38F32D1
:101FE000920709F469C02FE38033920750F42FE37E
:101FF0008F30920709F478C08F519F4309F08AC04F
:1020000043C02FE38F34920709F45EC08F559F437E
:1020100009F080C029C02FE38F3A920709F444C029
:102020002FE3803B920750F42FE38F38920709F497
:1020300053C08F599F4309F06DC01EC02FE38F3DE1
:10204000920709F476C02FE38F3E920709F459C036
:10205000875B9F4309F05EC088E092E00E943C02EB
:10206000C70168E072E047C088E892E00E943C0245
:10207000C70168E872E03FC08AE892E00E943C0233
:10208000C7016AE872E037C08CE892E00E943C0227
:10209000C7016CE872E02FC08EE892E00E943C021B
:1020A000C7016EE872E027C080E992E00E943C021E
:1020B000C70160E972E01FC082E992E00E943C0221
:1020C000C70162E972E017C084E992E00E943C0215
:1020D000C70164E972E00FC086E992E00E943C0209
:1020E000C70166E972E007C088E992E00E943C02FD
:1020F000C70168E972E00E94AA17113009F05EC0BA
:102100000DC0153009F458C01B3011F416E056CF3D
:10211000115017C011500DC0C60103C0C60106C042
:10212000C501B7010E94AA1704C0C501B7010E94EA
:102130009F171F5F123011F415E040CF173009F4DC
:102140003CCF1C3008F43ACF8CE00E9422028091F0
:10215000D5029091CC02892B8093D502CE010396B3
:102160000E9481176AE570E00E9438178093D202BE
:10217000CE0106960E9481176AE570E00E9438172A
:102180008093D302CE0101960E9481176AE570E028
:102190000E9438178093D40228960FB6F894DEBFB9
:1021A0000FBECDBFCF91DF911F91FF90EF90DF90D9
:1021B000CF90BF90AF90089511E000CF113008F498
:1021C000ABCF153009F4ACCF163009F0B2CFADCF9C
:1021D0008F929F92AF92BF92CF92DF92EF92FF9237
:1021E0001F93DF93CF93CDB7DEB72B970FB6F8943D
:1021F000DEBF0FBECDBF8FE00E94220284E190E0DF
:102200000E94FB0110E07E010894E11CF11C86E0B5
:10221000882E912C8C0E9D1EB9E0AB2EB12CAC0EED
:10222000BD1EA3E0CA2ED12CCC0EDD1E01C013E0D2
:10223000812F8A5F62E00E9426020E94870F2FE3AF
:102240008F36920709F462C02FE380379207E8F4D3
:102250002FE38F32920709F469C02FE3803392078E
:1022600050F42FE38F30920709F478C08F519F43C9
:1022700009F088C043C02FE38F34920709F45EC091
:102280008F559F4309F07EC029C02FE38F3A9207F4
:1022900009F444C02FE3803B920750F42FE38F38BA
:1022A000920709F453C08F599F4309F06BC01EC0B9
:1022B0002FE38F3D920709F478C02FE38F3E9207FA
:1022C00009F459C0875B9F4309F05CC088E092E045
:1022D0000E943C02C70168E072E047C088E892E0D3
:1022E0000E943C02C70168E872E03FC08AE892E0C1
:1022F0000E943C02C7016AE872E037C08CE892E0B5
:102300000E943C02C7016CE872E02FC08EE892E0A8
:102310000E943C02C7016EE872E027C080E992E0AB
:102320000E943C02C70160E972E01FC082E992E0AE
:102330000E943C02C70162E972E017C084E992E0A2
:102340000E943C02C70164E972E00FC086E992E096
:102350000E943C02C70166E972E007C088E992E08A
:102360000E943C02C70168E972E00E94AA1713307C
:1023700009F043C00DC01150123011F01530C9F4EE
:10238000115017C0115011C0C60103C0C6010AC0C8
:10239000C401B7010E94AA1708C0C40103C0C50147
:1023A000F8CFC501B7010E949F171F5F123009F4D3
:1023B0003ECF153008F43CCF8CE00E942202CE01C3
:1023C00003960E9481178093D002CE0106960E9448
:1023D00081178093D1022B960FB6F894DEBF0FBE03
:1023E000CDBFCF91DF911F91FF90EF90DF90CF9005
:1023F000BF90AF909F908F900895143028F41123D0
:1024000019F2113091F6C2CF163049F2173049F265
:10241000143059F6C2CF8F929F92AF92BF92CF9253
:10242000DF92EF92FF920F931F93DF93CF93CDB77D
:10243000DEB72D970FB6F894DEBF0FBECDBF8FE08D
:102440000E94220284E190E00E94FB0100E07E01F4
:102450000894E11CF11C39E0C32ED12CCC0EDD1EFA
:1024600026E0822E912C8C0E9D1E93E0A92EB12C7D
:10247000AC0EBD1E01C006E0802F8C5F62E00E94A2
:1024800026020E94870F2FE38F36920709F462C05D
:102490002FE380379207E8F42FE38F32920709F495
:1024A00069C02FE38033920750F42FE38F309207F7
:1024B00009F478C08F519F4309F088C043C02FE3CF
:1024C0008F34920709F45EC08F559F4309F07EC098
:1024D00029C02FE38F3A920709F444C02FE3803BD1
:1024E000920750F42FE38F38920709F453C08F59A5
:1024F0009F4309F06BC01EC02FE38F3D920709F484
:1025000078C02FE38F3E920709F459C0875B9F4341
:1025100009F05CC088E092E00E943C02C70168E0DC
:1025200072E047C088E892E00E943C02C70168E878
:1025300072E03FC08AE892E00E943C02C7016AE86C
:1025400072E037C08CE892E00E943C02C7016CE860
:1025500072E02FC08EE892E00E943C02C7016EE854
:1025600072E027C080E992E00E943C02C70160E966
:1025700072E01FC082E992E00E943C02C70162E95A
:1025800072E017C084E992E00E943C02C70164E94E
:1025900072E00FC086E992E00E943C02C70166E942
:1025A00072E007C088E992E00E943C02C70168E936
:1025B00072E00E94AA17043009F062C012C00150F4
:1025C000023011F00530E9F401501BC0015011C078
:1025D000C50103C0C5010AC0C401B7010E94AA1702
:1025E00008C0C40103C0C601F8CFC601B7010E94EC
:1025F0009F170F5F023011F403E03ECF053009F45E
:102600003ACF0A3008F438CF8091D5029091CE02AB
:10261000892B8093D5028CE00E942202CE01039682
:102620000E9481178C01CE0106960E9481177C01C1
:10263000CE0109960E948117FC01C8016FE170E08C
:102640000E943817282FC7016CE070E00E943817ED
:10265000682F822FAF010E94F6052D960FB6F894D1
:10266000DEBF0FBECDBFCF91DF911F910F91FF90C5
:10267000EF90DF90CF90BF90AF909F908F90089594
:10268000053050F4013009F4A5CF013008F4A0CF93
:10269000033009F0AECFA0CF073009F4A6CF083041
:1026A00020F4063009F0A5CF9ECF083009F49DCF65
:1026B000093009F09ECF99CF8F929F92AF92BF922F
:1026C000CF92DF92EF92FF920F931F93DF93CF93FE
:1026D000CDB7DEB72B970FB6F894DEBF0FBECDBFD8
:1026E0008FE00E94220284E190E00E94FB0100E062
:1026F0007E010894E11CF11C66E0862E912C8C0E64
:102700009D1E59E0A52EB12CAC0EBD1E43E0C42E7B
:10271000D12CCC0EDD1E01C006E0802F8B5F62E065
:102720000E9426020E94870F2FE38F36920709F43A
:1027300062C02FE380379207E8F42FE38F329207CD
:1027400009F469C02FE38033920750F42FE38F30F0
:10275000920709F478C08F519F4309F088C043C0A5
:102760002FE38F34920709F45EC08F559F4309F021
:102770007EC029C02FE38F3A920709F444C02FE3AB
:10278000803B920750F42FE38F38920709F453C02F
:102790008F599F4309F06BC01EC02FE38F3D9207F6
:1027A00009F478C02FE38F3E920709F459C0875B84
:1027B0009F4309F05CC088E092E00E943C02C701A0
:1027C00068E072E047C088E892E00E943C02C701DE
:1027D00068E872E03FC08AE892E00E943C02C701CC
:1027E0006AE872E037C08CE892E00E943C02C701C0
:1027F0006CE872E02FC08EE892E00E943C02C701B4
:102800006EE872E027C080E992E00E943C02C701B6
:1028100060E972E01FC082E992E00E943C02C701B9
:1028200062E972E017C084E992E00E943C02C701AD
:1028300064E972E00FC086E992E00E943C02C701A1
:1028400066E972E007C088E992E00E943C02C70195
:1028500068E972E00E94AA17033009F069C00DC050
:102860000150023011F00530E9F401501BC0015055
:1028700011C0C60103C0C6010AC0C401B7010E944D
:10288000AA1708C0C40103C0C501F8CFC501B7012C
:102890000E949F170F5F023011F403E03ECF053016
:1028A00009F43ACF083008F438CF8CE00E942202B5
:1028B0008091D5029091CD02892B8093D502CE01D3
:1028C00003960E9481178C01CE0106960E94811703
:1028D0007C01CE0109960E9481179C01C80168E124
:1028E00070E00E943817F82FC7016CE370E00E9477
:1028F0003817E82FC9016CE370E00E943817482FA1
:102900008F2F6E2F20E00E9471052B960FB6F89442
:10291000DEBF0FBECDBFCF91DF911F910F91FF9012
:10292000EF90DF90CF90BF90AF909F908F900895E1
:10293000043038F4002309F49CCF013009F0AACF09
:102940009ACF063009F4A0CF073009F49FCF0430A6
:1029500009F0A0CF97CF1F93CF93DF932FE38D384C
:10296000920709F4C1C14FE38E38940748F42FE36E
:102970008D32920771F08D549F4309F0D0C133C15D
:102980002FE38D3C920709F18F5F9F4309F0C7C188
:10299000C4C10E945B0281E592E00E943C0210E00B
:1029A000812F6AE00E942C17992341F40E945B0258
:1029B00081E592E00E943C020E94140D0E94870F64
:1029C000892B09F079C11F5FEBCF0E945B028AE976
:1029D00092E00E943C020E94EC0B0E94870FEC01E7
:1029E0008FE3CF3DD80709F0F4C00E945B028AEA6A
:1029F00092E00E943C020E94A80B0E94870FEC010B
:102A00009FE3CF3DD90709F0C7C00E945B020E9437
:102A1000560B0E94870FEC012FE38733920731F4A6
:102A20000E94B50F0E94870FEC018FC04FE3853FD6
:102A3000940749F41092DF021092E5021092F80216
:102A400010921B0382C08FE3CF3DD80709F07DC0F1
:102A50000E9490070E94870FEC019FE3C733D907BC
:102A600019F40E945C135BC02FE3CF3DD20709F03D
:102A700051C00E94A9070E94870FEC014FE38733E2
:102A8000940719F40E940B1238C08FE3CF3DD8078A
:102A900079F50E94C6070E94870FEC019FE3C733B8
:102AA000D90719F40E94E81005C02FE3CF3FD207E1
:102AB00009F402C180E04FE3CF3ED40709F481E07E
:102AC00090E02FE3CD3CD20709F491E0892B90E010
:102AD00020E030E0CF5FDF4311F421E030E0822BD3
:102AE000932B892BC1F20E94A907C1E0D0E005C059
:102AF0008FE3CF3FD80709F4DFC09FE3CF3ED9076C
:102B000021F0CD5CDF4309F0B6CF0E949007C1E011
:102B1000D0E005C04FE3CF3FD40709F4CDC08FE329
:102B2000CF3ED80721F0CD5CDF4309F093CF0E9460
:102B30005B020E94560B1092DF021092E502109287
:102B4000F80210921B03C1E0D0E080E02FE3CF3EFB
:102B5000D20709F481E090E04FE3CD3CD40709F4BB
:102B600091E0892B90E020E030E04FE3CF3FD407A5
:102B700011F421E030E0822B932B892B09F449CF0B
:102B80008FE3CF3ED80741F40E945B028AEA92E0CD
:102B90000E943C02C1E0D0E080E09FE3CF3ED90735
:102BA00009F481E090E02FE3CD3CD20709F491E0F5
:102BB000892B90E020E030E04FE3CF3FD40711F4C1
:102BC00021E030E0822B932B892B09F414CF0E9453
:102BD0005B028FE3CD3CD80709F49FC0CF5FDF4392
:102BE00009F0F5CE9AC00E94DC070E94870F2FE300
:102BF0008F3D920709F06FC00E9406080E94870F60
:102C0000EC0180E04FE3C733D40709F481E090B3CF
:102C1000882329F095FD03C00E94FA0749C090B3AC
:102C2000882329F095FF03C00E94EA0741C08FE383
:102C3000CF3DD807E9F50E9439080E94870FEC01C3
:102C400080E09FE3C733D90709F481E090B388237C
:102C500029F096FD03C00E942F080CC090B3882372
:102C600029F096FF03C00E94220804C02FE3CF3F43
:102C7000D20711F180E04FE3CF3ED40709F481E0A1
:102C800090E02FE3CD34D20709F491E0892B90E056
:102C900020E030E0CF5FDF4311F421E030E0822B11
:102CA000932B892B51F20E940608C1E0D0E007C0A7
:102CB0008FE3CF3FD80719F40E945B022EC09FE339
:102CC000CF3ED90721F0CD54DF4309F097CF0E94C2
:102CD000DC0781E090E04FE38D349407F1F08F5FE3
:102CE0009F4309F082CF19C00E945B028BEB92E0F8
:102CF0000E943C0205C00E9469005D9BFECF8CB91A
:102D00000E949D008823B9F70E94870F4FE38D38FA
:102D1000940719F08F5F9F4399F70E946107DF9135
:102D2000CF911F9108951F938FEF81BB80EF82BBDE
:102D3000939A60E074E284EF90E020E03BE440E0AE
:102D400050E00E9449000E9467020E94D1048CE07A
:102D500060E040E020E00E94710588E161E04DED17
:102D600057E00E94F6050E943E048091FA028460BA
:102D70008093FA026091FA0280E00E949F04969884
:102D80000E945B020E94D2010E9461079091D502CD
:102D90008091CF02981731F40E9478070E94830730
:102DA0000E945E0C0E9461070E94870F009749F005
:102DB0000E94AB1402C00E9469000E949D008823FB
:102DC000D1F70E94510A92B3813001F796FDDECF10
:102DD0000E944E080E947D080E94510A182F0E94EE
:102DE000FD0E1230B9F70E946008D0CF0F931F93E9
:102DF000DF93CF9300D000D00F92CDB7DEB78E0116
:102E00000F5F1F4FB8010E94E902C8010E94440CE5
:102E10000F900F900F900F900F90CF91DF911F9117
:102E20000F9108950F931F93DF93CF9300D00F92CC
:102E3000CDB7DEB790E08E010F5F1F4FB8010E9443
:102E40005503C8010E94440C0F900F900F90CF9132
:102E5000DF911F910F910895991B79E004C0991F8C
:102E6000961708F0961B881F7A95C9F780950895E4
:102E700097FB092E07260AD077FD04D02ED006D066
:102E800000201AF4709561957F4F0895F6F790959C
:102E900081959F4F0895A1E21A2EAA1BBB1BFD012D
:102EA0000DC0AA1FBB1FEE1FFF1FA217B307E40729
:102EB000F50720F0A21BB30BE40BF50B661F771F81
:102EC000881F991F1A9469F7609570958095909561
:102ED0009B01AC01BD01CF010895AA1BBB1B51E1B1
:102EE00007C0AA1FBB1FA617B70710F0A61BB70B7A
:102EF000881F991F5A95A9F780959095BC01CD011F
:102F00000895FC0188279927E89421912032E9F35C
:102F1000293010F02E30C8F32B3241F02D3239F425
:102F2000689404C00E94F417820F911D21912053D0
:102F30002A30C0F31EF4909581959F4F0895FB01B0
:102F4000DC010D900020E9F7119701900D9200200F
:102F5000E1F70895FB01DC0101900D920020E1F7FB
:102F60000895DC01FB014150504058F049F00190B8
:102F70000D920020C1F7E61BF70B3197CF010895A2
:102F80001C9201900020E9F7F6CFFB01DC014150D3
:102F9000504030F08D910190801919F40020B9F75C
:102FA000881B990B0895FB019F01E8944230C4F0FF
:102FB0004532B4F44A3029F497FB1EF4909581957C
:102FC0009F4F642F77270E946D17805D8A330CF026
:102FD000895D8193CB010097A1F716F45DE25193CF
:102FE0001082C9010C9404187AE0979F902D879F56
:102FF000802D910D11240895E199FECF9FBB8EBBCA
:10300000E09A99278DB30895DC01FC01672F719137
:103010007723E1F7329704C07C916D9370836291BE
:0C302000AE17BF07C8F30895F894FFCF67
:10302C00202020202020526561647920202020203F
:10303C00004368616E67652053657474696E6773CD
:10304C002100202020205345542054494D45202058
:10305C0020200020202030303A30303A30302020F0
:10306C00200020202020534554204441544520204A
:10307C0020200030302F30302F30303030002053B3
:10308C004554204E494748542054494D4520002072
:10309C0030302F303000202020204F5054494F4EDC
:1030AC00533A2020202000574F524B20204F4E00E7
:1030BC00574F524B20204F464600202020202020E6
:1030CC00574F524B3F202020202000454E41424C70
:1030DC00450044495341424C450020504320434F46
:1030EC004E4E454354494F4E3A2000436F6E6E6529
:1030FC006374696E672E2E2E00436F6E6E6563745B
:10310C0065642E2E2E00446973636F6E6E65637456
:10311C00696E672E2E2E00446973636F6E6E656345
:10312C007465642E2E2E002020202057616974694E
:10313C006E67212020202000636F6E6E6563740023
:10314C00646973636F6E6E65637400646174657437
:10315C00696D650073657474696E6773007365746B
:10316C0074656D7000747473657475700074696D3A
:10317C00657200646174650074656D70006F6E77C4
:10318C006F726B006F6666776F726B00756172742D
:10319C0000657869740074696D65736574006461A9
:1031AC007461736574006F6E006F666600636F6E9A
:1031BC00736F6C6500202020205345542054454DDE
:1031CC005020202020003C003000303000202F20E8
:1031DC0000202B2D200020433E003A30003A002FD7
:1031EC00004E006E69676874202D20667573696ED9
:1031FC0067006E69676874202D20636F6F6C696E51
:10320C0067004400646179202D20667573696E67D0
:10321C0000202054656D70657261747572653A207A
:10322C00200053656E64696E67206461746554692F
:10323C006D650053656E64696E672073657474699F
:10324C006E67730021000D00310032003300340032
:10325C00350036003700380039002020202020436C
:10326C006C6F636B20202020200020202020202049
:10327C00446174652020202020200020202055410E
:10328C005254204445425547202020000102040797
:00000001FF
